{
  "_format": "hh-sol-artifact-1",
  "contractName": "Vote",
  "sourceName": "contracts/Vote.sol",
  "abi": [
    {
      "inputs": [
        {
          "internalType": "string",
          "name": "_title",
          "type": "string"
        },
        {
          "internalType": "string[]",
          "name": "_candidates",
          "type": "string[]"
        }
      ],
      "stateMutability": "nonpayable",
      "type": "constructor"
    },
    {
      "anonymous": false,
      "inputs": [
        {
          "indexed": true,
          "internalType": "address",
          "name": "voter",
          "type": "address"
        },
        {
          "indexed": true,
          "internalType": "uint256",
          "name": "candidateId",
          "type": "uint256"
        }
      ],
      "name": "Voted",
      "type": "event"
    },
    {
      "inputs": [
        {
          "internalType": "uint256",
          "name": "",
          "type": "uint256"
        }
      ],
      "name": "candidates",
      "outputs": [
        {
          "internalType": "string",
          "name": "",
          "type": "string"
        }
      ],
      "stateMutability": "view",
      "type": "function"
    },
    {
      "inputs": [],
      "name": "candidatesCount",
      "outputs": [
        {
          "internalType": "uint256",
          "name": "",
          "type": "uint256"
        }
      ],
      "stateMutability": "view",
      "type": "function"
    },
    {
      "inputs": [],
      "name": "getResults",
      "outputs": [
        {
          "internalType": "string[]",
          "name": "names",
          "type": "string[]"
        },
        {
          "internalType": "uint256[]",
          "name": "counts",
          "type": "uint256[]"
        }
      ],
      "stateMutability": "view",
      "type": "function"
    },
    {
      "inputs": [
        {
          "internalType": "address",
          "name": "",
          "type": "address"
        }
      ],
      "name": "hasVoted",
      "outputs": [
        {
          "internalType": "bool",
          "name": "",
          "type": "bool"
        }
      ],
      "stateMutability": "view",
      "type": "function"
    },
    {
      "inputs": [],
      "name": "title",
      "outputs": [
        {
          "internalType": "string",
          "name": "",
          "type": "string"
        }
      ],
      "stateMutability": "view",
      "type": "function"
    },
    {
      "inputs": [
        {
          "internalType": "uint256",
          "name": "candidateId",
          "type": "uint256"
        }
      ],
      "name": "vote",
      "outputs": [],
      "stateMutability": "nonpayable",
      "type": "function"
    },
    {
      "inputs": [
        {
          "internalType": "uint256",
          "name": "",
          "type": "uint256"
        }
      ],
      "name": "votes",
      "outputs": [
        {
          "internalType": "uint256",
          "name": "",
          "type": "uint256"
        }
      ],
      "stateMutability": "view",
      "type": "function"
    }
  ],
  "bytecode": "0x608060405234801561001057600080fd5b5060405161141138038061141183398181016040528101906100329190610352565b600281511015610077576040517f08c379a000000000000000000000000000000000000000000000000000000000815260040161006e90610427565b60405180910390fd5b81600090816100869190610668565b5060005b81518110156100ef5760018282815181106100a8576100a761073a565b5b60200260200101519080600181540180825580915050600190039060005260206000200160009091909190915090816100e19190610668565b50808060010191505061008a565b505050610769565b6000604051905090565b600080fd5b600080fd5b600080fd5b600080fd5b6000601f19601f8301169050919050565b7f4e487b7100000000000000000000000000000000000000000000000000000000600052604160045260246000fd5b61015e82610115565b810181811067ffffffffffffffff8211171561017d5761017c610126565b5b80604052505050565b60006101906100f7565b905061019c8282610155565b919050565b600067ffffffffffffffff8211156101bc576101bb610126565b5b6101c582610115565b9050602081019050919050565b60005b838110156101f05780820151818401526020810190506101d5565b60008484015250505050565b600061020f61020a846101a1565b610186565b90508281526020810184848401111561022b5761022a610110565b5b6102368482856101d2565b509392505050565b600082601f8301126102535761025261010b565b5b81516102638482602086016101fc565b91505092915050565b600067ffffffffffffffff82111561028757610286610126565b5b602082029050602081019050919050565b600080fd5b60006102b06102ab8461026c565b610186565b905080838252602082019050602084028301858111156102d3576102d2610298565b5b835b8181101561031a57805167ffffffffffffffff8111156102f8576102f761010b565b5b808601610305898261023e565b855260208501945050506020810190506102d5565b5050509392505050565b600082601f8301126103395761033861010b565b5b815161034984826020860161029d565b91505092915050565b6000806040838503121561036957610368610101565b5b600083015167ffffffffffffffff81111561038757610386610106565b5b6103938582860161023e565b925050602083015167ffffffffffffffff8111156103b4576103b3610106565b5b6103c085828601610324565b9150509250929050565b600082825260208201905092915050565b7f4174206c656173742074776f2063616e64696461746573000000000000000000600082015250565b60006104116017836103ca565b915061041c826103db565b602082019050919050565b6000602082019050818103600083015261044081610404565b9050919050565b600081519050919050565b7f4e487b7100000000000000000000000000000000000000000000000000000000600052602260045260246000fd5b6000600282049050600182168061049957607f821691505b6020821081036104ac576104ab610452565b5b50919050565b60008190508160005260206000209050919050565b60006020601f8301049050919050565b600082821b905092915050565b6000600883026105147fffffffffffffffffffffffffffffffffffffffffffffffffffffffffffffffff826104d7565b61051e86836104d7565b95508019841693508086168417925050509392505050565b6000819050919050565b6000819050919050565b600061056561056061055b84610536565b610540565b610536565b9050919050565b6000819050919050565b61057f8361054a565b61059361058b8261056c565b8484546104e4565b825550505050565b600090565b6105a861059b565b6105b3818484610576565b505050565b5b818110156105d7576105cc6000826105a0565b6001810190506105b9565b5050565b601f82111561061c576105ed816104b2565b6105f6846104c7565b81016020851015610605578190505b610619610611856104c7565b8301826105b8565b50505b505050565b600082821c905092915050565b600061063f60001984600802610621565b1980831691505092915050565b6000610658838361062e565b9150826002028217905092915050565b61067182610447565b67ffffffffffffffff81111561068a57610689610126565b5b6106948254610481565b61069f8282856105db565b600060209050601f8311600181146106d257600084156106c0578287015190505b6106ca858261064c565b865550610732565b601f1984166106e0866104b2565b60005b82811015610708578489015182556001820191506020850194506020810190506106e3565b868310156107255784890151610721601f89168261062e565b8355505b6001600288020188555050505b505050505050565b7f4e487b7100000000000000000000000000000000000000000000000000000000600052603260045260246000fd5b610c99806107786000396000f3fe608060405234801561001057600080fd5b506004361061007d5760003560e01c80633477ee2e1161005b5780633477ee2e146100ec5780634717f97c1461011c5780634a79d50c1461013b5780635df81330146101595761007d565b80630121b93f1461008257806309eef43e1461009e5780632d35a8a2146100ce575b600080fd5b61009c6004803603810190610097919061069f565b610189565b005b6100b860048036038101906100b3919061072a565b610327565b6040516100c59190610772565b60405180910390f35b6100d6610347565b6040516100e3919061079c565b60405180910390f35b6101066004803603810190610101919061069f565b610354565b6040516101139190610847565b60405180910390f35b610124610400565b604051610132929190610a33565b60405180910390f35b6101436105be565b6040516101509190610847565b60405180910390f35b610173600480360381019061016e919061069f565b61064c565b604051610180919061079c565b60405180910390f35b60018054905081106101d0576040517f08c379a00000000000000000000000000000000000000000000000000000000081526004016101c790610ab6565b60405180910390fd5b600360003373ffffffffffffffffffffffffffffffffffffffff1673ffffffffffffffffffffffffffffffffffffffff16815260200190815260200160002060009054906101000a900460ff161561025d576040517f08c379a000000000000000000000000000000000000000000000000000000000815260040161025490610b22565b60405180910390fd5b6001600360003373ffffffffffffffffffffffffffffffffffffffff1673ffffffffffffffffffffffffffffffffffffffff16815260200190815260200160002060006101000a81548160ff02191690831515021790555060016002600083815260200190815260200160002060008282546102d99190610b71565b92505081905550803373ffffffffffffffffffffffffffffffffffffffff167f4d99b957a2bc29a30ebd96a7be8e68fe50a3c701db28a91436490b7d53870ca460405160405180910390a350565b60036020528060005260406000206000915054906101000a900460ff1681565b6000600180549050905090565b6001818154811061036457600080fd5b90600052602060002001600091509050805461037f90610bd4565b80601f01602080910402602001604051908101604052809291908181526020018280546103ab90610bd4565b80156103f85780601f106103cd576101008083540402835291602001916103f8565b820191906000526020600020905b8154815290600101906020018083116103db57829003601f168201915b505050505081565b606080600060018054905090508067ffffffffffffffff81111561042757610426610c05565b5b60405190808252806020026020018201604052801561045a57816020015b60608152602001906001900390816104455790505b5092508067ffffffffffffffff81111561047757610476610c05565b5b6040519080825280602002602001820160405280156104a55781602001602082028036833780820191505090505b50915060005b818110156105b857600181815481106104c7576104c6610c34565b5b9060005260206000200180546104dc90610bd4565b80601f016020809104026020016040519081016040528092919081815260200182805461050890610bd4565b80156105555780601f1061052a57610100808354040283529160200191610555565b820191906000526020600020905b81548152906001019060200180831161053857829003601f168201915b505050505084828151811061056d5761056c610c34565b5b6020026020010181905250600260008281526020019081526020016000205483828151811061059f5761059e610c34565b5b60200260200101818152505080806001019150506104ab565b50509091565b600080546105cb90610bd4565b80601f01602080910402602001604051908101604052809291908181526020018280546105f790610bd4565b80156106445780601f1061061957610100808354040283529160200191610644565b820191906000526020600020905b81548152906001019060200180831161062757829003601f168201915b505050505081565b60026020528060005260406000206000915090505481565b600080fd5b6000819050919050565b61067c81610669565b811461068757600080fd5b50565b60008135905061069981610673565b92915050565b6000602082840312156106b5576106b4610664565b5b60006106c38482850161068a565b91505092915050565b600073ffffffffffffffffffffffffffffffffffffffff82169050919050565b60006106f7826106cc565b9050919050565b610707816106ec565b811461071257600080fd5b50565b600081359050610724816106fe565b92915050565b6000602082840312156107405761073f610664565b5b600061074e84828501610715565b91505092915050565b60008115159050919050565b61076c81610757565b82525050565b60006020820190506107876000830184610763565b92915050565b61079681610669565b82525050565b60006020820190506107b1600083018461078d565b92915050565b600081519050919050565b600082825260208201905092915050565b60005b838110156107f15780820151818401526020810190506107d6565b60008484015250505050565b6000601f19601f8301169050919050565b6000610819826107b7565b61082381856107c2565b93506108338185602086016107d3565b61083c816107fd565b840191505092915050565b60006020820190508181036000830152610861818461080e565b905092915050565b600081519050919050565b600082825260208201905092915050565b6000819050602082019050919050565b600082825260208201905092915050565b60006108b1826107b7565b6108bb8185610895565b93506108cb8185602086016107d3565b6108d4816107fd565b840191505092915050565b60006108eb83836108a6565b905092915050565b6000602082019050919050565b600061090b82610869565b6109158185610874565b93508360208202850161092785610885565b8060005b85811015610963578484038952815161094485826108df565b945061094f836108f3565b925060208a0199505060018101905061092b565b50829750879550505050505092915050565b600081519050919050565b600082825260208201905092915050565b6000819050602082019050919050565b6109aa81610669565b82525050565b60006109bc83836109a1565b60208301905092915050565b6000602082019050919050565b60006109e082610975565b6109ea8185610980565b93506109f583610991565b8060005b83811015610a26578151610a0d88826109b0565b9750610a18836109c8565b9250506001810190506109f9565b5085935050505092915050565b60006040820190508181036000830152610a4d8185610900565b90508181036020830152610a6181846109d5565b90509392505050565b7f496e76616c69642063616e646964617465000000000000000000000000000000600082015250565b6000610aa06011836107c2565b9150610aab82610a6a565b602082019050919050565b60006020820190508181036000830152610acf81610a93565b9050919050565b7f416c726561647920766f74656400000000000000000000000000000000000000600082015250565b6000610b0c600d836107c2565b9150610b1782610ad6565b602082019050919050565b60006020820190508181036000830152610b3b81610aff565b9050919050565b7f4e487b7100000000000000000000000000000000000000000000000000000000600052601160045260246000fd5b6000610b7c82610669565b9150610b8783610669565b9250828201905080821115610b9f57610b9e610b42565b5b92915050565b7f4e487b7100000000000000000000000000000000000000000000000000000000600052602260045260246000fd5b60006002820490506001821680610bec57607f821691505b602082108103610bff57610bfe610ba5565b5b50919050565b7f4e487b7100000000000000000000000000000000000000000000000000000000600052604160045260246000fd5b7f4e487b7100000000000000000000000000000000000000000000000000000000600052603260045260246000fdfea26469706673582212204c8f16e3f48186efd1485a97c3c3c8d93aa1b21ce5f7eedfce274fa7d3cee7f564736f6c634300081c0033",
  "linkReferences": {},
  "deployedLinkReferences": {}
}